:020000040000FA
:1000000000012020D5000000D9000000DB00000026
:1000100000000000000000000000000000000000E0
:10002000000000000000000000000000DD000000F3
:100030000000000000000000DF000000E100000000
:10004000E3000000E3000000E3000000E300000024
:10005000E3000000E3000000E3000000E300000014
:1000600000000000E3000000E300000000000000CA
:1000700000000000E3000000E3000000E3000000D7
:10008000E3000000E3000000E3000000E3000000E4
:10009000E3000000E300000000000000000000009A
:1000A000E3000000E300000000000000000000008A
:1000B000E300000000000000E3000000E300000097
:1000C0000348854600F010F8004800479101000001
:1000D0000001202003480047FEE7FEE7FEE7FEE7B9
:1000E000FEE7FEE7C1000000064C0125064E05E0D4
:1000F000E36807CC2B430C3C98471034B442F7D349
:10010000FFF7E2FFE8010000F8010000801E001F79
:1001100000BFFCD270470000054881210160C16129
:100120000162312080050349086008637047C046BA
:10013000C8804240A0320A4004480168032291432B
:1001400001600348002101607047C04600010B4078
:1001500008030B4080B500F005F8FFF7DDFFFFF75F
:10016000EBFF80BD80B5064806494160064A5160F4
:100170000649016011601020FFF7C8FF80BDC0462E
:1001800000080A40030000B100280A4001000026D0
:10019000FFF7E0FF01208006064D28612120800541
:1001A0002860054C2046FFF7B1FF3120800528620A
:1001B000F8E7C04690320A408096980000000000A0
:1001C00002E008C8121F08C1002AFAD170470000D7
:1001D0007047000000000000002001E001C1121F74
:1001E000002AFBD170470000F80100000000202029
:0801F00000010000D80100002D
:04000005000000C136
:00000001FF
